{
  "contractName": "TestWallet",
  "abi": [
    {
      "inputs": [],
      "stateMutability": "nonpayable",
      "type": "constructor"
    },
    {
      "anonymous": false,
      "inputs": [
        {
          "indexed": true,
          "internalType": "address",
          "name": "buyer",
          "type": "address"
        },
        {
          "indexed": false,
          "internalType": "string",
          "name": "currency",
          "type": "string"
        },
        {
          "indexed": false,
          "internalType": "uint256",
          "name": "ethAmount",
          "type": "uint256"
        },
        {
          "indexed": false,
          "internalType": "uint256",
          "name": "currencyAmount",
          "type": "uint256"
        }
      ],
      "name": "Buy",
      "type": "event"
    },
    {
      "anonymous": false,
      "inputs": [
        {
          "indexed": true,
          "internalType": "address",
          "name": "seller",
          "type": "address"
        },
        {
          "indexed": false,
          "internalType": "string",
          "name": "currency",
          "type": "string"
        },
        {
          "indexed": false,
          "internalType": "uint256",
          "name": "ethAmount",
          "type": "uint256"
        },
        {
          "indexed": false,
          "internalType": "uint256",
          "name": "currencyAmount",
          "type": "uint256"
        }
      ],
      "name": "Sell",
      "type": "event"
    },
    {
      "inputs": [],
      "name": "balance",
      "outputs": [
        {
          "internalType": "uint256",
          "name": "",
          "type": "uint256"
        }
      ],
      "stateMutability": "view",
      "type": "function",
      "constant": true
    },
    {
      "inputs": [
        {
          "internalType": "string",
          "name": "",
          "type": "string"
        }
      ],
      "name": "currencyBalances",
      "outputs": [
        {
          "internalType": "uint256",
          "name": "",
          "type": "uint256"
        }
      ],
      "stateMutability": "view",
      "type": "function",
      "constant": true
    },
    {
      "inputs": [],
      "name": "owner",
      "outputs": [
        {
          "internalType": "address",
          "name": "",
          "type": "address"
        }
      ],
      "stateMutability": "view",
      "type": "function",
      "constant": true
    },
    {
      "inputs": [],
      "name": "deposit",
      "outputs": [],
      "stateMutability": "payable",
      "type": "function",
      "payable": true
    },
    {
      "inputs": [
        {
          "internalType": "uint256",
          "name": "amount",
          "type": "uint256"
        }
      ],
      "name": "withdraw",
      "outputs": [],
      "stateMutability": "nonpayable",
      "type": "function"
    },
    {
      "inputs": [
        {
          "internalType": "string",
          "name": "currency",
          "type": "string"
        },
        {
          "internalType": "uint256",
          "name": "ethAmount",
          "type": "uint256"
        },
        {
          "internalType": "uint256",
          "name": "currencyRate",
          "type": "uint256"
        }
      ],
      "name": "buy",
      "outputs": [],
      "stateMutability": "payable",
      "type": "function",
      "payable": true
    },
    {
      "inputs": [
        {
          "internalType": "string",
          "name": "currency",
          "type": "string"
        },
        {
          "internalType": "uint256",
          "name": "currencyAmount",
          "type": "uint256"
        },
        {
          "internalType": "uint256",
          "name": "currencyRate",
          "type": "uint256"
        }
      ],
      "name": "sell",
      "outputs": [],
      "stateMutability": "nonpayable",
      "type": "function"
    },
    {
      "inputs": [
        {
          "internalType": "string",
          "name": "currency",
          "type": "string"
        }
      ],
      "name": "getCurrencyBalance",
      "outputs": [
        {
          "internalType": "uint256",
          "name": "",
          "type": "uint256"
        }
      ],
      "stateMutability": "view",
      "type": "function",
      "constant": true
    }
  ],
  "bytecode": "0x608060405234801561001057600080fd5b50336000806101000a81548173ffffffffffffffffffffffffffffffffffffffff021916908373ffffffffffffffffffffffffffffffffffffffff160217905550610dfc806100606000396000f3fe60806040526004361061007b5760003560e01c80639b0a5e671161004e5780639b0a5e671461013a578063b69ef8a814610156578063d0e30db014610181578063e3b3d50a1461018b5761007b565b806304804ee8146100805780632e1a7d4d146100a95780636704b383146100d25780638da5cb5b1461010f575b600080fd5b34801561008c57600080fd5b506100a760048036038101906100a29190610833565b6101c8565b005b3480156100b557600080fd5b506100d060048036038101906100cb919061089a565b6103eb565b005b3480156100de57600080fd5b506100f960048036038101906100f491906107f2565b610541565b6040516101069190610adb565b60405180910390f35b34801561011b57600080fd5b50610124610569565b6040516101319190610a22565b60405180910390f35b610154600480360381019061014f9190610833565b61058d565b005b34801561016257600080fd5b5061016b610726565b6040516101789190610adb565b60405180910390f35b61018961072c565b005b34801561019757600080fd5b506101b260048036038101906101ad91906107f2565b610747565b6040516101bf9190610adb565b60405180910390f35b60008054906101000a900473ffffffffffffffffffffffffffffffffffffffff1673ffffffffffffffffffffffffffffffffffffffff163373ffffffffffffffffffffffffffffffffffffffff1614610256576040517f08c379a000000000000000000000000000000000000000000000000000000000815260040161024d90610abb565b60405180910390fd5b600081670de0b6b3a76400008461026d9190610c05565b6102779190610bd4565b90506001548111156102be576040517f08c379a00000000000000000000000000000000000000000000000000000000081526004016102b590610a7b565b60405180910390fd5b80600160008282546102d09190610b7e565b92505081905550826002856040516102e89190610a0b565b908152602001604051809103902060008282546103059190610c5f565b9250508190555060008054906101000a900473ffffffffffffffffffffffffffffffffffffffff1673ffffffffffffffffffffffffffffffffffffffff166108fc829081150290604051600060405180830381858888f19350505050158015610372573d6000803e3d6000fd5b5060008054906101000a900473ffffffffffffffffffffffffffffffffffffffff1673ffffffffffffffffffffffffffffffffffffffff167f049f57f92fe331c8352bc57011dd480b77f5dadaf815d7d9a33fae03e4acc3498583866040516103dd93929190610a3d565b60405180910390a250505050565b60008054906101000a900473ffffffffffffffffffffffffffffffffffffffff1673ffffffffffffffffffffffffffffffffffffffff163373ffffffffffffffffffffffffffffffffffffffff1614610479576040517f08c379a000000000000000000000000000000000000000000000000000000000815260040161047090610abb565b60405180910390fd5b6001548111156104be576040517f08c379a00000000000000000000000000000000000000000000000000000000081526004016104b590610a7b565b60405180910390fd5b80600160008282546104d09190610c5f565b9250508190555060008054906101000a900473ffffffffffffffffffffffffffffffffffffffff1673ffffffffffffffffffffffffffffffffffffffff166108fc829081150290604051600060405180830381858888f1935050505015801561053d573d6000803e3d6000fd5b5050565b60006002826040516105539190610a0b565b9081526020016040518091039020549050919050565b60008054906101000a900473ffffffffffffffffffffffffffffffffffffffff1681565b60008054906101000a900473ffffffffffffffffffffffffffffffffffffffff1673ffffffffffffffffffffffffffffffffffffffff163373ffffffffffffffffffffffffffffffffffffffff161461061b576040517f08c379a000000000000000000000000000000000000000000000000000000000815260040161061290610abb565b60405180910390fd5b81341461065d576040517f08c379a000000000000000000000000000000000000000000000000000000000815260040161065490610a9b565b60405180910390fd5b346001600082825461066f9190610c5f565b925050819055506000670de0b6b3a7640000823461068d9190610c05565b6106979190610bd4565b9050806002856040516106aa9190610a0b565b908152602001604051809103902060008282546106c79190610b7e565b925050819055503373ffffffffffffffffffffffffffffffffffffffff167f40f5583ae6965366e0acfa8dc48c165ed2fce35c84de4966619b6e42e4d5f4c885858460405161071893929190610a3d565b60405180910390a250505050565b60015481565b346001600082825461073e9190610b7e565b92505081905550565b6002818051602081018201805184825260208301602085012081835280955050505050506000915090505481565b600061078861078384610b27565b610af6565b9050828152602081018484840111156107a057600080fd5b6107ab848285610ccf565b509392505050565b600082601f8301126107c457600080fd5b81356107d4848260208601610775565b91505092915050565b6000813590506107ec81610daf565b92915050565b60006020828403121561080457600080fd5b600082013567ffffffffffffffff81111561081e57600080fd5b61082a848285016107b3565b91505092915050565b60008060006060848603121561084857600080fd5b600084013567ffffffffffffffff81111561086257600080fd5b61086e868287016107b3565b935050602061087f868287016107dd565b9250506040610890868287016107dd565b9150509250925092565b6000602082840312156108ac57600080fd5b60006108ba848285016107dd565b91505092915050565b6108cc81610c93565b82525050565b60006108dd82610b57565b6108e78185610b62565b93506108f7818560208601610cde565b61090081610d9e565b840191505092915050565b600061091682610b57565b6109208185610b73565b9350610930818560208601610cde565b80840191505092915050565b6000610949601483610b62565b91507f496e73756666696369656e742062616c616e63650000000000000000000000006000830152602082019050919050565b6000610989601983610b62565b91507f496e636f72726563742045544820616d6f756e742073656e74000000000000006000830152602082019050919050565b60006109c9600d83610b62565b91507f4e6f7420746865206f776e6572000000000000000000000000000000000000006000830152602082019050919050565b610a0581610cc5565b82525050565b6000610a17828461090b565b915081905092915050565b6000602082019050610a3760008301846108c3565b92915050565b60006060820190508181036000830152610a5781866108d2565b9050610a6660208301856109fc565b610a7360408301846109fc565b949350505050565b60006020820190508181036000830152610a948161093c565b9050919050565b60006020820190508181036000830152610ab48161097c565b9050919050565b60006020820190508181036000830152610ad4816109bc565b9050919050565b6000602082019050610af060008301846109fc565b92915050565b6000604051905081810181811067ffffffffffffffff82111715610b1d57610b1c610d6f565b5b8060405250919050565b600067ffffffffffffffff821115610b4257610b41610d6f565b5b601f19601f8301169050602081019050919050565b600081519050919050565b600082825260208201905092915050565b600081905092915050565b6000610b8982610cc5565b9150610b9483610cc5565b9250827fffffffffffffffffffffffffffffffffffffffffffffffffffffffffffffffff03821115610bc957610bc8610d11565b5b828201905092915050565b6000610bdf82610cc5565b9150610bea83610cc5565b925082610bfa57610bf9610d40565b5b828204905092915050565b6000610c1082610cc5565b9150610c1b83610cc5565b9250817fffffffffffffffffffffffffffffffffffffffffffffffffffffffffffffffff0483118215151615610c5457610c53610d11565b5b828202905092915050565b6000610c6a82610cc5565b9150610c7583610cc5565b925082821015610c8857610c87610d11565b5b828203905092915050565b6000610c9e82610ca5565b9050919050565b600073ffffffffffffffffffffffffffffffffffffffff82169050919050565b6000819050919050565b82818337600083830152505050565b60005b83811015610cfc578082015181840152602081019050610ce1565b83811115610d0b576000848401525b50505050565b7f4e487b7100000000000000000000000000000000000000000000000000000000600052601160045260246000fd5b7f4e487b7100000000000000000000000000000000000000000000000000000000600052601260045260246000fd5b7f4e487b7100000000000000000000000000000000000000000000000000000000600052604160045260246000fd5b6000601f19601f8301169050919050565b610db881610cc5565b8114610dc357600080fd5b5056fea2646970667358221220c81ff2bb6889481356fb9cb46ce40d3dcb416ac270002cd2f671d0ad5abd830a64736f6c63430008000033",
  "immutableReferences": {},
  "source": "// SPDX-License-Identifier: MIT\npragma solidity ^0.8.0;\n\ncontract TestWallet {\n    address public owner;\n    uint256 public balance;\n    mapping(string => uint256) public currencyBalances;\n\n    event Buy(address indexed buyer, string currency, uint256 ethAmount, uint256 currencyAmount);\n    event Sell(address indexed seller, string currency, uint256 ethAmount, uint256 currencyAmount);\n\n    constructor() {\n        owner = msg.sender;\n    }\n\n    modifier onlyOwner() {\n        require(msg.sender == owner, \"Not the owner\");\n        _;\n    }\n\n    function deposit() public payable {\n        balance += msg.value;\n    }\n\n    function withdraw(uint256 amount) public onlyOwner {\n        require(amount <= balance, \"Insufficient balance\");\n        balance -= amount;\n        payable(owner).transfer(amount);\n    }\n\n    function buy(string memory currency, uint256 ethAmount, uint256 currencyRate) public payable onlyOwner {\n        require(msg.value == ethAmount, \"Incorrect ETH amount sent\");\n        balance -= msg.value;\n        uint256 currencyAmount = (msg.value * currencyRate) / 1 ether;\n        currencyBalances[currency] += currencyAmount;\n        emit Buy(msg.sender, currency, ethAmount, currencyAmount);\n    }\n\n    function sell(string memory currency, uint256 currencyAmount, uint256 currencyRate) public onlyOwner {\n        uint256 ethAmount = (currencyAmount * 1 ether) / currencyRate;\n        require(ethAmount <= balance, \"Insufficient balance\");\n        balance += ethAmount;\n        currencyBalances[currency] -= currencyAmount;\n        payable(owner).transfer(ethAmount);\n        emit Sell(owner, currency, ethAmount, currencyAmount);\n    }\n\n    function getCurrencyBalance(string memory currency) public view returns (uint256) {\n        return currencyBalances[currency];\n    }\n}\n",
  "sourcePath": "/Users/bogdanpronin/Desktop/blockch-hw/blockchain/contracts/TestWallet.sol",
  "compiler": {
    "name": "solc",
    "version": "0.8.0+commit.c7dfd78e.Emscripten.clang"
  },
  "schemaVersion": "3.4.16",
  "updatedAt": "2024-06-28T14:51:22.525Z",
  "networkType": "ethereum",
  "devdoc": {
    "kind": "dev",
    "methods": {},
    "version": 1
  },
  "userdoc": {
    "kind": "user",
    "methods": {},
    "version": 1
  }
}